:020000040800F2
:10000000600F00209502000885840008ED79000843
:1000100081840008D11D0008C99500080000000077
:100020000000000000000000000000009D850008A6
:10003000DD1E000800000000318500089F850008D3
:10004000AF020008AF020008AF020008AF020008CC
:10005000AF020008AF02000851230008AF020008F9
:10006000AF020008AF020008AF020008D51D00086B
:10007000E51D0008F51D0008051E0008151E0008F6
:10008000251E0008000000005D1C0008AF020008EB
:10009000AF020008AF020008AF0200085B230008AF
:1000A000AF020008AF020008AF020008AF0200086C
:1000B00021860008AF020008AF020008AF02000866
:1000C000AF020008AF020008AF020008AF0200084C
:1000D000AF020008B9950008AF020008AF0200089F
:1000E000AF020008AF020008AF020008AF0200082C
:1000F000AF020008AF020008AF02000800000000D5
:1001000000000000AF02000800000000AF0200087D
:10011000E58B000800000000AF020008AF020008F5
:10012000AF020008AF020008AF020008AF020008EB
:10013000AF0200080000000000000000AF0200084D
:10014000AF020008AF02000800000000000000003D
:10015000000000000000000000000000000000009F
:10016000000000000000000000000000AF020008D6
:10017000AF020008000000000000000000000000C6
:1001800000000000AF0200080000000000000000B6
:10019000000000000000000000000000000000005F
:1001A0000000000000000000AF020008AF020008DD
:1001B000F1790008AF020008AF020008000000005B
:1001C00000000000AF020008000000000000000076
:1001D000AF020008AF02000800F002F800F04AF891
:1001E0000AA090E8000C82448344AAF10107DA4592
:1001F00001D100F03FF8AFF2090EBAE80F0013F09A
:10020000010F18BFFB1A43F00103184734BF000069
:1002100054BF0000103A24BF78C878C1FAD85207FA
:1002200024BF30C830C144BF04680C607047000070
:100230000023002400250026103A28BF78C1FBD8EF
:10024000520728BF30C148BF0B6070471FB50AF086
:1002500032FE00F033FC0400002000210AF0AAF96D
:10026000401C6060002000210AF08EF9E0601FBD94
:1002700010B510BD00F064FE1146FFF7E7FF0AF06D
:1002800001F801F0B5F803B4FFF7F2FF03BC01F089
:100290001BF900000948804709480047FEE7FEE7D0
:1002A000FEE7FEE7FEE7FEE7FEE7FEE7FEE7FEE726
:1002B00004480549054A064B704700000D860008B2
:1002C000D901000860090020600F0020600B0020A9
:1002D000600B002053EA020C00F069802DE9F04B1E
:1002E0004FF00006002B1FBFB3FA83F503FA05F4A5
:1002F00024FA05F65E4012BF1643B2FA82F502FAFE
:1003000005F4C5F120051EBF22FA05FC44EA0C04E1
:10031000203556EA044C4FEA144418BF641C4FF0D1
:1003200000084FF00009904271EB030C39D300290B
:1003300019BFB1FA81F701FA07F6B0FA80F700FAAF
:1003400007F6C7F120071EBF20FA07FC46EA0C0695
:100350002037B6FBF4FCA7EB0507103F07F01F0B97
:10036000CBF120060CFA0BFB2CFA06F644BFB34681
:100370000026202FA4BF5E464FF0000B5BEA060C60
:1003800008BF4FF0010B19EB0B09ABFB027C48EBEC
:100390000608C01B06FB02CC0BFB03CC71EB0C0167
:1003A000C1E70B46024641464846BDE8F08B13B50F
:1003B0004FF000004FF00001AFF30080BDE81C409B
:1003C000704700000FB400B58DB010A909900091DE
:1003D0000B904FF0FF300A9000200C9006487844B4
:1003E0000690064878446A4607900F9909A800F0DD
:1003F00035FB0DB05DF814FB9B060000B306000052
:10040000032A40F2308010F0030C00F0158011F840
:10041000013BBCF1020F624498BF11F801CB00F818
:10042000013B38BF11F8013BA2F1040298BF00F86C
:1004300001CB38BF00F8013B11F0030300F0258029
:10044000083AC0F0088051F8043B083A51F804CB50
:10045000A0E80810F5E7121D5CBF51F8043B40F816
:10046000043BAFF30080D20724BF11F8013B11F821
:1004700001CB48BF11F8012B24BF00F8013B00F865
:1004800001CB48BF00F8012B704710B5203AC0F0EF
:100490000B80B1E81850203AA0E81850B1E8185085
:1004A000A0E81850BFF4F5AF5FEA027C24BFB1E8C2
:1004B0001850A0E8185044BF18C918C0BDE8104033
:1004C0005FEA827C24BF51F8043B40F8043B08BF3C
:1004D0007047D20728BF31F8023B48BF11F8012B03
:1004E00028BF20F8023B48BF00F8012B70474FF0AF
:1004F000000200B5134694469646203922BFA0E874
:100500000C50A0E80C50B1F12001BFF4F7AF09077F
:1005100028BFA0E80C5048BF0CC05DF804EB890070
:1005200028BF40F8042B08BF704748BF20F8022BB3
:1005300011F0804F18BF00F8012B704770477047CB
:10054000704710B500F0BEFA006810BD10B5044643
:1005500000F0B8FA046010BD2DE9FF4F06468BB0DD
:100560000878FF2806D0491C2D2805D000244FF01C
:10057000000908E000200CE00124F8E709EB8903FA
:10058000491C00EB43090878FF28F7D114B1C9F1E1
:1005900000008146107800252C46AA4629462D28C1
:1005A00001D02B2804D1521C2D2813D000208246C4
:1005B0008B461078FF280FD04FF0000C0A21521CF8
:1005C000A5FB017804FB018105FB0C11C5194BEB60
:1005D0000104EEE70120EAE7002108464FF00000A1
:1005E000BAF1000F02D000EB80004008C0F3815741
:1005F000012F01DD4FF0FF370E9955EA040009EB9A
:1006000001080BD04FF0020918F5FA7F16DA4FEA0D
:10061000CA70002F706008DD012007E04FEACA7041
:10062000C6E900B00FB0BDE8F08F0020306000F0E8
:1006300049FAC0F800901821084616E0B8F5FA7F8C
:1006400018DD002F02DAF748784401E0F6487844D4
:10065000D0E90010C6E9001040EACA70706000F0EE
:1006600031FAC0F80090142108460FB0BDE8F04FF1
:100670000AF0A5BC002108464FF00000B8F10001C7
:10068000099002DAC7F1000200E03A4601DAC8F147
:10069000000106A800F0DEFB06AB93E8070003AB01
:1006A00083E8070044F23E005BEA040100905846EC
:1006B00004D144F21E012C465D460091210C090430
:1006C000014306D10099240444EA15442D0410394D
:1006D000009104F07F41014306D10099240244EACD
:1006E00015642D020839009104F07041014306D1D0
:1006F0000099240144EA15742D01091F009104F0AA
:100700004041014306D10099A40044EA9574AD002C
:10071000891E009104F00041084304D100986D192E
:100720006441401E00904FF001033A466846B8F11C
:10073000000FCDE9014503A902DD01F058F901E000
:1007400001F02BF9BAF1000F04460D4601D084F0F8
:100750000044002108464FF00000099940F2FF775D
:10076000484010F00C0F07D124F00040284303D07C
:10077000C4F30A50B84212D100F0A4F9C0F80090B6
:10078000C4F30A50B8420AD1A8487844D0E900100E
:10079000C6E9001004F000410843706042E7C6E972
:1007A00000543FE72DE9FF4F1F464FF0000A4FF07E
:1007B000FF38454691B0D7E90146CDF83CA000F09E
:1007C0007DF9C0680168405C1090B96912986D1C91
:1007D0008847396A814688470028F6D1B9F1FF3F3A
:1007E0000AD0002E24F4D06411DDB9F12B0F08D00B
:1007F000B9F12D0F0BD102E0404615B013E744F4D8
:100800008064B96912986D1C8847761E8146600520
:1008100004A901D52D2000E02B20002E01F1010BB1
:100820000DF130088DF810003FDDB9F1690F08D0E7
:10083000B9F1490F05D0B9F16E0F02D0B9F14E0FE1
:100840001CD13B4601A8009580E85002DDE9121258
:100850006FF002000AF01AFCC11CCED10EE0B9699B
:1008600012986D1C884781461398761E44F40074D4
:1008700005600F98401C002E0F9016DDB9F1300F67
:10088000EDD0B9F1780F02D0B9F1580F0DD10F9812
:1008900001280AD13B46CDE90054DDE91212001FC0
:1008A00002960AF0F1FBC11CA7D1109989453ED1EF
:1008B00044F0800406E01399681CAAF1010A44F48C
:1008C00000740860B9696D1C1298761E884730283C
:1008D0008146F0D02BE01099894505D1200603D43C
:1008E000761E44F0800418E0484609F084F808B306
:1008F000761E0DF123018B4544F4007408D2A9F152
:1009000030000BF8010B200607D5AAF1010003E027
:10091000200602D40AF101008246A00502D51399EF
:10092000681C0860B96912986D1C88478146002EC2
:10093000D1DC53E0002E51DDB9F1650F02D0B9F1E1
:10094000450F4BD1A00549D5B9696D1C1298761E8B
:1009500024F440748847002E81460CDD2B2804D0F7
:10096000B9F12D0F07D144F48074B96912986D1C48
:100970008847761E8146E00501D52D2100E02B2118
:1009800008F8011BCDF8008021E0761E0DF1390139
:10099000884544F400740CD2A9F1300010F0FF0037
:1009A00088F8000002D10099884509D908F10108AA
:1009B00006E0E00501D51E4801E042F20F708246D4
:1009C000B96912986D1C8847814613980560002EFE
:1009D00004DD484609F00FF80028D6D1F9691298CD
:1009E0008847FF2053468BF8000088F8000000205D
:1009F0000A900B9004AA0CA90AA8FFF7ADFDA00568
:100A000002D46FF00100F8E614F0240F12D0E007D2
:100A10001CD13868DDE90A12031D3B600068C0E99B
:100A2000001213E01CBB00000EBB0000D2B9000096
:100A3000F1D8FFFF0AA9684608F0CAFFE00705D110
:100A40003868009A011D3960006802602846D4E6C3
:100A5000026811441378016018467047D160054957
:100A600079445161044979441162002111611146B0
:100A700000F036B8EDFFFFFF63000000426842B1AE
:100A8000016811F8013B23B1521EC0E9001218465B
:100A900070470121C160881E704742685AB1C3681F
:100AA000016843B983688B4205D0491E521CC0E9D6
:100AB0000012002070474FF0FF3070470048704729
:100AC0001C09002000487047FC08002010B50446AF
:100AD00000F05CFA0068005D00F0010010BD00004D
:100AE0002DE9F34F4FF0000A0C4656468DB0012019
:100AF0000C9001F10C000B9062690B98012190475A
:100B0000051E2DD0252D2CD0216A8847C0B16269E1
:100B10000B9801219047216A88470028F7D1626924
:100B2000411E0B98904700E0761CA1690D988847FC
:100B3000216A88470028F7D1E1690D988847DBE7EB
:100B4000A1690D988847A842074601D1761CD3E7D2
:100B5000E1690D9888477F1C02D1BAF1000F6FD070
:100B60006CE162690B9800273D46394690472A2878
:100B700004D162690B98012190470125DFF8D082EA
:100B800062690B9801219047A0F130010A290AD22D
:100B90004745E5DC07EB870100EB4107303FDFD439
:100BA00045F01005ECE7E90601D46FF000476C282A
:100BB0000AD04C2814D0682815D06A280DD0742883
:100BC0001CD07A281AD01DE062690B980121904749
:100BD0006C2802D045F0040514E045F002050DE054
:100BE00045F020050AE062690B98012190476828CA
:100BF00002D045F0080505E045F4006562690B98F0
:100C000001219047C4E9015765283DD019DC5828D7
:100C10007AD00CDC452837D004DC252826D04128A2
:100C20009ED131E046282FD0472899D12CE05B286F
:100C300077D0612828D063287CD0642823D15AE05B
:100C4000F7E06F2848D008DC66281DD067281BD045
:100C5000692821D06E2816D127E0702845D0732846
:100C600068D0752847D078280DD14DE0A1690D983E
:100C70008847252805463FF469AFE1690D98884704
:100C80006D1C3FF46AAFD9E00D9923466A466FF0B8
:100C900001000AF0F7F9C6E045F0400023464FF0A6
:100CA00000026060A80736D43EE0E8077FF447AF53
:100CB0002068011D21600068290501D506701BE729
:100CC000290701D5068017E7A90703D5F117C0E961
:100CD000006111E706600FE745F0400023464FF042
:100CE00008026060A80716D41EE040F60E0125EA4F
:100CF0000100606016E045F0400023464FF00A0214
:100D00006060A80707D40FE045F040006060A807C6
:100D100008D5234610220D996FF00100AFF3008033
:100D200081E007E0102223460D996FF00100AFF338
:100D3000008078E04FF0000963284F46C8464B46D4
:100D4000CB4602D05B2807D039E02079C00601D419
:100D50000120A060012732E06269D4F80CB00B9842
:100D6000012190475E2807D14FF001094946626989
:100D7000D4F80CB00B989047216939B900210A4684
:100D800003AB43F82120491C0829FADBD8B32169B9
:100D900049B308F1010862690B98012190475D2869
:100DA000F4D1B9F1000F09D0002003A951F8202097
:100DB000D24341F82020401C0828F7DB03AB206910
:100DC000002820794FEA40701ED05B462246CDF8BD
:100DD0000080CDE901970D9900286FF0010020DA1D
:100DE000AFF300801FE0C11703AA00EBD1614B11E4
:100DF00021F01F0102EB8302411A13680120884091
:100E000003431360C7E719E00D99224600286FF0ED
:100E10000100009702DAAFF3008004E0AFF3008036
:100E200001E0AFF3008000280ADA401C06D10C98DC
:100E300020B14FF0FF300FB0BDE8F08F5046FAE719
:100E4000E90701D10AF1010A064400200C9053E69B
:100E5000CCCCCC0C2DE9F047814616468AB03548FB
:100E600078440DC88DE80D0032487844801C03ACEE
:100E70000DC884E80D0041F69B300844372190FBF3
:100E8000F1F290FBF1F5A5F1800501FB12041B3C8A
:100E900002D56442012000E00020DFF898A08046DF
:100EA0000027FA44AAF1BE0A0EE0E0070AD0324653
:100EB000684607EB470101230AEB810100F082FD40
:100EC0008DE8070064107F1C002CEED1194F7F4481
:100ED000AE3F19E0E80715D007EB04100DF1180A32
:100EE00090E80E008AE80E00C068F04201D198191F
:100EF00008903246012306A903A800F063FD03AB66
:100F000083E807006D10641C002DE3D14FF001034E
:100F100032466946B8F1000F03A802D000F028FD60
:100F200001E000F04FFDC9E90001C9F808200AB04E
:100F3000BDE8F087C4B2000000487047FC080020FC
:100F40007546FFF7F9FFAE4605006946534620F0A7
:100F50000700854618B020B5FFF7AAF9BDE8204084
:100F60004FF000064FF000074FF000084FF0000B65
:100F700021F00701AC46ACE8C009ACE8C009ACE818
:100F8000C009ACE8C0098D467047000010B5FFF7F6
:100F900095FD001D10BD00BF1D9600002DE9FF4FFF
:100FA0001F464FF03C0987B04FF00042DDE91410B6
:100FB00001F10108DDF858A002EA4050039000203A
:100FC00005908346054604460490B969461E089874
:100FD0008847AAF1010A0290BAF1000F3BDD02989E
:100FE0002E2815D0102100F060FA00282EDB4FF0DB
:100FF000010B0599014317D0B9F1000F0BDB4A46ED
:10100000C11700F03FFA05430C43A9F1040905E0BC
:10101000012004900BE008B145F001050120059086
:10102000049820B9361D02E0049800B1361FB96952
:10103000089808F101088847BBF1000FAAF1010ADE
:101040000290C9D00999C1F80080C5E702987028BC
:1010500008D0502806D0F96908988847BBF1000FDE
:1010600014D04FE0002002900120BBF1000F04904B
:1010700009D0B969089808F101088847AAF101095F
:10108000B9F1000F07DCF969089888476FF0010093
:101090000BB0BDE8F08F2B2804D02D280CD14FF0D9
:1010A000FF300490B969089808F101088847A9F150
:1010B0000109B9F1000FE6DD411CE4D00A2100F07E
:1010C000F4F90028DFDB029908F1010801EB810146
:1010D00000EB41000290B969089888470A2100F0A6
:1010E000E4F9099AA9F10109B9F1000FC2F80080E9
:1010F00001DD0028E7DAF969089888470499029821
:1011000000FB016655EA040004D004F040410900E8
:1011100002D006E0039898E0A40044EA9574AD007C
:10112000B61E04F00041080002D16D196441761E1C
:10113000159810F0240F03D04FF00B095C4803E022
:101140004FF028096FF07D008246564507DAAAEB7A
:1011500006018944B9F1410F01DD4FF04109012039
:101160000021A9F1010200F08DF9024628400B464A
:101170002140084301D0012100E00021501E0291CE
:1011800043F1FF3128402140084301D0012000E015
:1011900000200299834651EA0B014FD000210846F6
:1011A0004FF00000039900F4400039B100EB8000DB
:1011B0004FF4400100EBD07001EA60008015012877
:1011C00002DD4FF0FF3000E013D0401C36D0029813
:1011D00060B3BBF1000F0CD14A460120002100F0A2
:1011E00051F928402140084301D0012000E00020AF
:1011F000E0B101204A46002100F044F903464019BD
:101200000A4661412D1A8C4111D3B9F1400F09DD15
:10121000159810F0240F02D0AAF1340603E0AAF1C9
:10122000170600E0761C00254FF0004406E05B1E28
:1012300042F1FF3220EA030521EA0204CAF101006B
:10124000B04206DA1B490398084301900020009041
:101250000EE0039AC4F3D321E80A0A43164940EA90
:1012600044500A433146CDE90002684608F0B9FB14
:10127000159810F0240F0BD01598C00715D13868B9
:10128000DDE90012031D3B600068C0E900120CE0BC
:1012900002A8694608F09CFB1598C00705D138687C
:1012A000029A011D3960006802604046F0E60000C5
:1012B00002FCFFFF0000F07F0000F03F2DE9FF4F30
:1012C00092461D4685B04FF00041DDE9124BDDE945
:1012D00014727F1E01EA4B50414940F0FF4940EA39
:1012E0000108002122F020004928049102D04E2854
:1012F00028D04CE03BA0012607C88DE80700A9696B
:101300000698641C88477F1E014606D41DF8060017
:1013100018B121F0200181420BD0E9690698884775
:10132000032E34D0082E32D06FF0010009B0BDE892
:10133000F08F761C032E01D0082EE0D1601CCAF875
:101340000000DCE7A9690698641C88477F1E2AD440
:1013500020F02000412826D1A9690698641C8847FE
:101360007F1E20D420F020004E281CD1A9690698A9
:10137000641C88477F1E48F4002849F48009CAF895
:10138000004001D4282806D0E969069888475FEA1A
:10139000CB7012D022E0A9690698641C88477F1E92
:1013A00001D4002803DAE96906988847BCE72928B0
:1013B000F1D1641CCAF80040E9E71BF0240F07D004
:1013C00028680499031D2B600068C0E9001805E037
:1013D0002868021D2A600068C0F800902046A5E732
:1013E0000000F07F494E46494E4954590000000024
:1013F00010B50446AFF300802046BDE81040FEF76C
:1014000042BF00004FF0013C50F8042B51F8043B60
:101410009A4221D1A2EB0C03934313EACC1317D1C8
:1014200050F8042B51F8043B9A4215D1A2EB0C035F
:10143000934313EACC130BD150F8042B51F8043B1F
:101440009A4209D1A2EB0C03934313EACC13DBD0ED
:101450004FF00000704700BFD01A01BAB1FA81F115
:1014600001F0180122FA01F0CB40C1F12001DBB2FA
:10147000C0B2C01A2CFA01F3D11A914311EAC31178
:10148000E6D17047B2F120030AD5C2F1200301FA78
:1014900002F120FA03F300FA02F041EA0301704777
:1014A00000FA03F14FF0000070473A2800D23038BC
:1014B00020F02002412A01D3A2F13700884201D353
:1014C0004FF0FF307047000001491820ABBEFEE727
:1014D00026000200704720F07F4C80EA030023F0D2
:1014E0007F47ACEB070303F57C5300F0004003F1AA
:1014F000FF032DE980494FEA154B09B44FEA144325
:1015000025EA0B4E24EA03480FF2042606EB1327C4
:1015100049083E785FEA320203FB0667C7F5000719
:1015200007FB06F64FEA54374FEAD64606F10206A5
:1015300007FB066CCCF1005C4FEA1C472CEA074C19
:1015400007FB06F40CFB06F504EB15464FEA96166E
:1015500034BF00204FF000404FEAD13706FB07FCB4
:101560004FEA1C4C0CFB0BF7D21B03FB0CF761EB97
:1015700007010CFB0EF7B0EB074072EB17420CFBB8
:1015800008F734BFA2EB0742B2EB074261EB174109
:101590004FEA0C444FEA910706FB07FC4FEA1C4C4C
:1015A0000CFB0BF7B0EBC74072EB573203FB0CF7A9
:1015B00034BFA2EBC742B2EBC74261EB57310CFB21
:1015C0000EF7B0EBC70072EB57720CFB08F734BF95
:1015D000A2EBC702B2EBC70261EB5771039F4FEA60
:1015E000816141EA921104EBCC044FEAD1374FEA12
:1015F000826206FB07FC42EA90124FEA80604FEAE3
:101600001C4C0CFB0BF7D21B03FB0CF761EB070127
:101610000CFB0EF7B0EB074072EB17420CFB08F720
:1016200034BFA2EB0742B2EB074261EB17414FEA2E
:101630008C554FEA910704EB9C2406FB07FC4FEA0C
:101640001C4C0CFB0BF7B0EBC74072EB573203FBA3
:101650000CF734BFA2EBC742B2EBC74261EB573184
:101660000CFB0EF7B0EBC70072EB57720CFB08F7E0
:1016700034BFA2EBC702B2EBC70261EB577115EBA7
:101680004C254FEA816141EA92114FEA82624FEAAA
:10169000D13742EA901206FB07FC44F100044FEAFE
:1016A00080604FEA1C4C0CFB0BF7D21B03FB0CF7C2
:1016B00061EB07010CFB0EF7B0EB074072EB174232
:1016C0000CFB08F734BFA2EB0742B2EB074261EB19
:1016D000174115EB1C154FEA813141EA92414FEA5F
:1016E000823242EA90424FEA80304FEA0C7644F16F
:1016F000000448EA03434EEA0B484FF0000EB2EBF9
:10170000080C71EB030724BF624639464EEB0E0E00
:101710004FF0000B0018524149414BEB0B0BB2EB61
:10172000080C71EB03077BF1000B24BF62463946BE
:101730004EEB0E0E4FF0000B0018524149414BEB9F
:101740000B0BB2EB080C71EB03077BF1000B24BF12
:10175000624639464EEB0E0E51EA020718BF46F0BC
:10176000010616EB0E7655F1000254F1000103D587
:10177000BDE88901BDE80088BDE88901BDE80048F1
:10178000B619524141EB0101A3F10103704780807A
:101790007F7E7D7C7B7A79787776767574737271CB
:1017A00071706F6E6E6D6C6C6B6A6A696868676683
:1017B00066656464636362616160605F5F5E5E5D15
:1017C0005D5C5C5B5B5A5A59595858575756565589
:1017D00055555454535352525251515050504F4FEB
:1017E0004F4E4E4D4D4D4C4C4C4B4B4B4A4A4A493B
:1017F000494948484847474747464646454545447E
:101800004444444343434342424242414141000035
:1018100046EA0646A3F570534FEA164646EA425694
:101820004FEAD22242EA415210B54FEAD121A3F148
:10183000010300F02FF820F0004000F1020C00F04E
:10184000004701EB00501146BCF5006F40EA07006D
:1018500000D210BDBAF1000F0AD01CB503B44FF08E
:1018600004004FF004014FF000000FBCBDE8104031
:101870004FF00001BBF1010FB9BF04484FF0FF3139
:101880000348002140EA070010BD00BFFFFFEF7FC3
:101890000000F07F002B9C4630D477002BD01CB585
:1018A0004FEA370703B44FF010004FF01001BAF1C0
:1018B000000F06D0BCF1000FDCBF40F0080040F084
:1018C00008014FF000000FBCBDE810400BF1010B08
:1018D000BBF1010F08BF5FEA170722BF12F1010237
:1018E00011F101014FF0004143F1000300F000400D
:1018F00043EA00007047F9D35708D0E746EA0646A6
:1019000013F1400F4FEA16461FDD13F1200FDFBF22
:1019100016430A46002120335B42BED0C3F12007A4
:1019200046EA064602FA07F74FEA164646EA07066F
:10193000C3F1200722FA03F201FA07F721FA03F1B3
:101940004FF0000342EA0702A7E746EA020646EA2A
:1019500006464FEA164646EA0106BCBF46EA064678
:10196000360C4FF000034FF000024FF0000194E7F7
:101970002DE9804C9A46934670B491E8380007C828
:1019800031EA400C48BF34EA430C03D5FFF7A3FD0E
:10199000FFF780FFF0BCBDE8008C2DE9804C9A4633
:1019A000934670B491E8380007C831EA400C48BF4C
:1019B00034EA430C03D5FFF78EFDFFF729FFF0BC97
:1019C000BDE8008C2DE9804C9A46934670B491E8AE
:1019D000380007C810F0804F08BF13F0804F03D1C4
:1019E00000F01AF8FFF756FFF0BCBDE8008C2DE9B7
:1019F000804C9A46934670B491E8380007C810F0BE
:101A0000804F08BF13F0804F03D100F005F8FFF7B7
:101A1000FFFEF0BCBDE8008C20F07F4780EA0300A9
:101A200023F07F4C07EB0C03A3F57C5300F0004040
:101A3000A3F1FE0392F0000F00F0B38095F0000FC9
:101A400000F077802DE901494FEA11404FEA144632
:101A500021EA004800FB06FC24EA064708FB06F6DC
:101A600007FB08F800FB07F718EB06484CEB164C91
:101A70004FEA124B18EB07484FEA15464CEB17405C
:101A800022EA0B4E0BFB06FC25EA06470EFB06F688
:101A900007FB0EFE0BFB07F71EEB064E4CEB164C3E
:101AA0004FF000061EEB074E4CEB174B18EB0B08E4
:101AB00040F1000018EB0E0B58EB000840F100005D
:101AC0008F1A4FF000013CBFC943661B14BFB5EB32
:101AD000040C00213CBFC943F61B4FEA17444EEAF1
:101AE0008E0E27EA04454FEA1C4704FB07622CEAE6
:101AF000074C05FB07F70CFB05F604FB0CFC16EB8B
:101B0000074642EB174216EB0C4642EB1C421BEB1E
:101B1000060658EB0202414146EA9E0601D5BDE8A1
:101B20000189B619524141EB0101A3F10103BDE85E
:101B300001894FEA14454FEA114724EA054621EA94
:101B4000074C05FB07F406FB07F70CFB06F105FB4A
:101B50000CFC11EB074144EB17444FEA124711EB21
:101B60000C4144EB1C4422EA074C05FB07F206FB40
:101B700007F70CFB06F605FB0CFC16EB074642EBE1
:101B8000174216EB0C4642EB1C456A1854F1000153
:101B900048BF7047B619524141EB0101A3F101035F
:101BA000704795F0000F37D04FEA11424FEA1447C3
:101BB00021EA024624EA074C02FB07F106FB07F77D
:101BC0000CFB06F402FB0CFC14EB074441EB174141
:101BD0004FEA154714EB0C4441EB1C4125EA074C36
:101BE00002FB07F506FB07F70CFB06F602FB0CFCF5
:101BF00016EB074645EB174516EB0C4645EB1C422A
:101C0000121951F1000148BF7047B619524141EB1A
:101C10000101A3F1010370474FEA14454FEA114750
:101C200024EA054621EA074C05FB07F106FB07F706
:101C30000CFB06F24FF0000605FB0CFC12EB074212
:101C400041EB174112EB0C4251EB1C4148BF70476E
:101C5000921841EB0101A3F10103704710B503484D
:101C600001F00AFD024801F007FD10BD340100201B
:101C7000A001002070B50446206805F0F9FE064674
:101C8000206805F0FAFE98B396BB2068806800F0E3
:101C90000D0001280AD1206881681A4A1140891C68
:101CA000816000BF03202168086009E0E06D40F01A
:101CB0001000E065206E40F001002066012070BD3C
:101CC00002F0CAFF054614E002F0C6FF401B0228DE
:101CD0000FD92068806800F0010050B1E06D40F03D
:101CE0001000E065206E40F0010020660120E6E76C
:101CF00005E02068806800F001000028E4D10020A1
:101D0000DDE70000C0FFFF7F38B5044600200090EB
:101D1000206805F0B2FE00284FD12068806828496D
:101D2000084048B1E06D40F01000E065206E40F0E2
:101D300001002066012038BD206805F061FE00BF6B
:101D40002048806800F0E07000F4000080B11E4878
:101D500000681E49B0FBF1F0401C00EB4000800021
:101D6000009002E00098401E009000980028F9D1F1
:101D700002F072FF05461AE0206805F07EFE10B9F9
:101D8000206805F03DFE02F067FF401B02280ED9D7
:101D90002068006800F0010048B9E06D40F01000D4
:101DA000E065206E40F0010020660120C3E7206856
:101DB000006800F001000028DED00020BBE7000032
:101DC0003F00008000030050B8000020400D0300D9
:101DD00000BFFEE710B5024802F0FBFA10BD00009C
:101DE0001003002010B5024802F0F3FA10BD000005
:101DF0007003002010B5024802F0EBFA10BD00009D
:101E00004406002010B5024802F0E3FA10BD0000BD
:101E1000A406002010B5024802F0DBFA10BD000055
:101E20000407002010B5024802F0D3FA10BD0000EC
:101E30006407002030B50E4D0468AC4201D20D4954
:101E400001E00C4920310B460478083C1425B4FB12
:101E5000F5F2446CA40803EB84048464054C8034DC
:101E6000C46402F01F050124AC40046530BD0000CD
:101E7000080402400008024001794A1E064B03EBA9
:101E800082024265044A403282654A1E02F01F0304
:101E900001229A40C26570470009024030B5D0E97E
:101EA00013546C60446D14B1D0E916546C6090F812
:101EB000444004F01F050124AC40056C6C600468CC
:101EC00063608468102C04D10468A2600468E16037
:101ED00003E00468A1600468E26030BD7047000060
:101EE00010B50220064981F8540001F1300008F0D5
:101EF00075F90120024981F8560081F8550010BD9E
:101F0000C807002070B52DED0E8BB9480068407AE7
:101F100020B9B84890ED120A80ED0E0AB648D0ED0F
:101F2000063AB0EE633AD0ED053AF0EE632AD0ED12
:101F3000043AB0EE632AD0ED003AF0EE631AD0ED29
:101F4000073AB0EE631AAB48D0ED0E3AF0EE630AF2
:101F5000A948D0ED013AB0EE630AA64AA74902F1BA
:101F6000300007F04FFDA44890ED080ADFEDA40A09
:101F700020EE200A9F48D0ED100A9FEDA21AB0EE85
:101F800040EA01EE20EA9A480068407A00287DD1B4
:101F9000984890F8560008B1002405E0944800687D
:101FA00040689449096D441A914800684068914915
:101FB0000865002081F856008F4890ED021BB0EEB6
:101FC000410AF0EE610A51EC100B08F009FB00EE3B
:101FD000100A70EE4E9A874890F8550018B185485F
:101FE000D0ED118A3DE0834890ED0C1BB0EE410A24
:101FF000F0EE610A9FED841B53EC112B51EC100B9A
:1020000008F092FD07D27B4890F95400002802DCCA
:10201000DFED7F8A25E0774890ED130A10EE101A65
:10202000084608F0A1FE41EC1B0B204608F02FFCEF
:1020300041EC1D0B9FED770B53EC102B08F076FC59
:1020400041EC1C0B53EC1B2B08F070FC41EC1A0B01
:1020500008F0C6FA00EE100A6648D0ED110A70EEDC
:10206000208A6E4890ED010AB0EE688A00EE298A57
:10207000B2EE040AB4EEC08AF1EE10FA0BDDB3EE54
:10208000020A38EE409AB3EE020A00E093E05948A3
:1020900080ED0F0A1DE0BBEE020AB4EEC08AF1EE3D
:1020A00010FA02DB9FED5A9A03E0BBEE020A38EE0B
:1020B000409ABBEE020AB4EEC08AF1EE10FA05D2E5
:1020C000BBEE020A4B4880ED0F0A02E0494880ED62
:1020D0000F8A524890ED000A20EE290AF0EE409A4D
:1020E0000020444981F855000846C0ED118A90ED62
:1020F0000C1BB0EE410AF0EE610A9FED431B53EC5E
:10210000112B51EC100B08F00FFD04D201203949BE
:1021100081F854002DE0374890ED0C1BB0EE410AD9
:10212000F0EE610A9FED381B53EC112B51EC100BB4
:1021300008F0C0FB04D2FF202E4981F8540018E0BB
:102140002C4890ED0C1BB0EE410AF0EE610A9FEDB9
:102150002E1B53EC112B51EC100B08F02FFB04D16C
:102160000020244981F8540003E00220214981F82D
:102170005400B5EEC09AF1EE10FA01DD012501E040
:102180004FF0FF35F5EEC09AF1EE10FA01DD0126B1
:1021900001E04FF0FF36B5EEC09AF1EE10FA07D02D
:1021A000B54205D19FED1A0A124880ED130A02E0EC
:1021B0001048C0ED139A0F4880ED10EA0C480068F3
:1021C000407A20B90B4890ED0F0A80ED120A0848BA
:1021D0000068407A30B9064800684068401C0449ED
:1021E0000968486008F0E2F8BDEC0E8B70BD000095
:1021F000C0B00008C80700202008002048080020C0
:102200000AD7A33B52B87E3F000000000000000048
:1022100000000000FCA9F1D24D62503F7C0000207C
:102220002DE9F05F2DED028B06468A4693461F4648
:10223000DDE90D84DAF80000DBF80010451A96EDB0
:10224000000ABCEEC00A10EE100A00EB05094D456D
:1022500000D8A946D6ED000AB7EE001A81EE200A92
:10226000DFED350A60EE200A00EE109AB8EE400A63
:1022700020EE808A98ED000AB4EEC80AF1EE10FA5A
:1022800008DB9FED2D0A38EE000AD8ED000A70EE4B
:10229000608A03E098ED000A78EE408AB1EE040A05
:1022A00028EE800AF0EE408ADFED240A68EEA00AEC
:1022B000B0EE600A07F024FA9FED1F1AF0EE680AEC
:1022C00040EE410A0C98C0ED000A9FED1D0A28EE71
:1022D000000ABCEEC00A10EE105A201DE16F50F843
:1022E0002100281A00EE100AB8EEC00ADFED150A28
:1022F00020EE200ADFED140A20EE200AD4ED000AB9
:102300009FED121A01EE200A87ED000A201DE16FF1
:1023100040F82150E06F1D2803D2E06F401CE067B9
:1023200001E00020E06797ED000A84ED000ABDECB3
:10233000028BBDE8F09F0000DB0FC94083F9223E0D
:102340006AF9224E00409C360AD7233CA4707D3F98
:1023500010B5012002F086FB10BD10B5402002F040
:1023600081FB802002F07EFB10BD72B600BFFEE74D
:1023700010B5194901640368D3F8803023F4F814C8
:10238000838E44EA03430468C4F8803001F170038B
:1023900043640368D3F8803023F0706490F83830D9
:1023A00044EA03630468C4F8803001F1B003836435
:1023B00001F5C473C36401F51873036501F51E7359
:1023C00043650A4602E000231360121D01F55473B1
:1023D0009A42F8D310BD000000A40040F8B50446AE
:1023E0000D460020009000BF94F85800012801D14C
:1023F0000220F8BD012084F8580000BF2046FFF7F6
:1024000039FC06468EBBE06D20F4885040F0020097
:10241000E065206881681B4A114005F0804242F067
:1024200000421143816000BF13E00098401C0090FF
:102430001549009888420CD3E06D20F0020040F06E
:102440001000E06500BF002084F8580000BF0120A4
:10245000CFE720688168C90F0029E6D1E06D20F040
:10246000020040F00100E06504E0FFE7E06D40F0AD
:102470001000E06500BF002084F8580000BF30461F
:10248000B7E70000C0FFFF3F02DE04007047000016
:102490002DE9FC5F05460C460020019000900027C6
:1024A000686900B100BFFE49E068884200D000E0E2
:1024B00000BF00BF95F85800012802D10220BDE8F6
:1024C000FC9F012085F8580000BF686910B1206AA0
:1024D00001281ED1606809284ED1A06A60B194F825
:1024E000280000F07C002168C1F3846140EA4120AB
:1024F000E16A40EA010703E02068C0F38460470214
:102500002868C06CE749084038432968C8646F668A
:1025100032E0A86E90B9216AA96600206866A06AB8
:1025200050B1206A401E94F8281001F07C01084345
:10253000E16A40EA010701E0206A471E207900F0C5
:102540001F010020884087432068C0F38460217900
:1025500001F01F0188400743A86E401EA866686E00
:1025600038436866A86E38B92868C06CCD49084001
:10257000696E08432968C864286805F06AFAD8B902
:1025800094F8250070B994F82600400594F82410BA
:1025900040EA01502968C96821F4401108432968BC
:1025A000C86009E02868C06820F4401094F826103C
:1025B00040EA41502968C860286805F072FA8246EE
:1025C000286805F046FA8146BAF1000F7ED1B9F1CC
:1025D000000FFBD1A06A08B1E06A88B994F8250021
:1025E000012806D12868C06840F000702968C860DA
:1025F00017E02868C06820F000702968C86010E003
:1026000094F82500012806D1E86D40F02000E86527
:102610000120019005E02868C06820F0007029685A
:10262000C86094F8300001280CD1606B40F00200C3
:10263000A16B08432968096921F4FF7108432968DF
:10264000086105E02868006920F002002968086137
:10265000A068B0F1004F0AD121680022286805F077
:1026600042FA4FF00041286805F079FA08E0A268C4
:102670002168286805F037FA0021286805F06FFA0C
:1026800060692968C968C1F3C101490000FA01F80D
:102690002069042840D028682268216900F1600C74
:1026A0000CEB8103D3F800C0DFF8FCB10CEA0B0C93
:1026B00002F0F84B4BF0004B4BEA080B4CEA0B0CCA
:1026C000C3F800C000BF2868A26900E0CCE021691F
:1026D00000F1600C0CEB8103D3F800C02CF0807C7F
:1026E0004CEA020CC3F800C000BF2868227F2169B1
:1026F000012A01D1520600E00022134600F1600CCD
:102700000CEB8102D2F800C02CF0007C4CEA030CE8
:10271000C2F800C000BFA7E00021286805F086F9D4
:10272000C0F3120030B90021286805F07FF9C0F32A
:10273000846007E00021286805F078F990FAA0F09D
:10274000B0FA80F02168C1F3120119B92168C1F310
:10275000846104E0216891FAA1F1B1FA81F1884223
:1027600004D100221146286805F0E8F90121286803
:1027700005F05CF9C0F3120030B90121286805F0BA
:1027800055F9C0F3846007E00121286805F04EF98F
:1027900090FAA0F0B0FA80F02168C1F3120119B9E3
:1027A0002168C1F3846104E0216891FAA1F1B1FAD2
:1027B00081F1884204D100220121286805F0BEF988
:1027C0000221286805F032F9C0F3120030B9022165
:1027D000286805F02BF9C0F3846007E0022128681F
:1027E00005F024F990FAA0F0B0FA80F02168C1F366
:1027F000120119B92168C1F3846104E0216891FADA
:10280000A1F1B1FA81F1884204D1002202212868A5
:1028100005F094F90321286805F008F9C0F31200C7
:1028200030B90321286805F001F9C0F3846007E09E
:102830000321286805F0FAF890FAA0F0B0FA80F0C9
:102840002168C1F3120119B92168C1F3846104E060
:10285000216891FAA1F1B1FA81F1884204D10022F4
:102860000321286805F06AF9286805F00BF90028AB
:1028700073D12868E2682168D0F8B030C1F3120C37
:1028800023EA0C0302F0180BDFF820C02CFA0BFC33
:102890000CEA010C43EA0C03C0F8B03000BF07E0BB
:1028A00000007F400040100400F0FF03FFFF07001E
:1028B0007849E068884250D12368C3F312031BB9FA
:1028C0002368C3F3846304E0236893FAA3F3B3FAA1
:1028D00083F35B1C03F01F03092B3FD82368C3F36A
:1028E00012031BB92368C3F3846304E0236893FADB
:1028F000A3F3B3FA83F35B1C03F01F034FF0010C47
:102900000CFA03FC2368C3F312031BB92368C3F357
:10291000846304E0236893FAA3F3B3FA83F35B1CA4
:1029200003F01F034CEA836C2368C3F312031BB943
:102930002368C3F3846304E0236893FAA3F3B3FA30
:1029400083F35B1C03F01F0303EB43034FF0000B07
:102950004BEA03534CEA03033FE043E02368C3F32D
:1029600012031BB92368C3F3846304E0236893FA5A
:10297000A3F3B3FA83F35B1C03F01F034FF0010CC6
:102980000CFA03FC2368C3F312031BB92368C3F3D7
:10299000846304E0236893FAA3F3B3FA83F35B1C24
:1029A00003F01F034CEA836C2368C3F312031BB9C3
:1029B0002368C3F3846304E0236893FAA3F3B3FAB0
:1029C00083F35B1C03F01F030A3B03EB43034FF04D
:1029D000007B4BEA03534CEA03031946A2682868BC
:1029E00005F081F82C492068084050B300BF2B48FF
:1029F000806800F0E07600BF29492068884203D053
:102A00002849206888421DD106F40000D0B9286802
:102A1000B0F1A04F37D146F40001204805F07DF811
:102A2000214800682149B0FBF1F0801C00EB400018
:102A30008000009002E00098401E0090009800285E
:102A4000F9D120E01A49206888420CD106F0807044
:102A500048B918492868884215D046F080710F4857
:102A600005F05BF80FE01449206888420BD106F4AA
:102A7000800040B90F492868884204D046F480019C
:102A8000064805F04AF800BF002085F8580000BF4E
:102A9000019814E500007F4000000880000300500A
:102AA000000021C31000C090B8000020400D0300BA
:102AB000000052C700010050000084CB3EB5044620
:102AC000AD4884424BD1AD480078002848D1AC488D
:102AD0000078401CAA490870A7480068D0F8800018
:102AE000A8490880A8480068D0F88000A749088055
:102AF000A1480068D0F88400A5490880A54800884E
:102B0000A04909880844A3490880A34800889F4930
:102B100009880844A0490880A04800889C49098881
:102B200008449E490880964800780A2817DB01204F
:102B300092490870974800880A2190FBF1F0954966
:102B40000880954800880A2190FBF1F0924908809E
:102B5000924800880A2190FBF1F0904908800AE130
:102B600085480068D0F8800086490880824800685F
:102B7000D0F884008649088083480068D0F8800037
:102B8000824908807F48008882490988401A00EEFF
:102B9000100AB8EEC00ADFED820A20EE200A814852
:102BA00080ED040A794800887B490988401A00EEC4
:102BB000100AB8EEC00ADFED7A0A20EE200A794842
:102BC00080ED050A7248008874490988401A00EEB1
:102BD000100AB8EEC00ADFED720A20EE200A714832
:102BE00080ED060AFFF78EF96F4890ED001BB0EEFE
:102BF000410AF0EE610A51EC100B07F01BFE6B4925
:102C00000860694890ED021BB0EE410AF0EE610ADF
:102C100051EC100B07F00EFE6449091D0860624874
:102C200090ED041BB0EE410AF0EE610A51EC100B7E
:102C300007F000FE5D49083108609FED5D0A5D48C0
:102C400080ED200A9FED5C0A80ED210A5B48006858
:102C50005849C1F888000020C1F88C0001F18000BB
:102C6000574A584BCDE90020029100F10C028831FF
:102C7000001DFFF7D5FA524890ED000A494880ED53
:102C8000070A504890ED000A464880ED080A4B4874
:102C900090ED000AB8EE400ADFED470A80EE201AF8
:102CA000B0EE000A21EE000ADFED470A20EE200A0E
:102CB000464880ED000A464890ED010A454880EDFF
:102CC000000A434890ED000A424880ED010A354869
:102CD00090ED080A3F4880ED020A324890ED021B51
:102CE000B0EE410AF0EE610A51EC100B07F078FCEF
:102CF0003849C860314890ED000AB8EE400A0846ED
:102D000080ED040A344890ED010A084680ED050A7A
:102D1000314890ED000A084680ED060A2F4890EDF4
:102D2000000A084680ED070A2D4890ED000A084683
:102D300080ED080A1B4890ED040A084680ED090A58
:102D4000184890ED050A084680ED0A0A154890EDEE
:102D5000060A084680ED0B0A30222248FDF795FB53
:102D600034222049204804F0EFFD0A2301221F49A4
:102D70001F4804F087FD3EBD3401002046000020BE
:102D80005C00002036000020A00100203800002058
:102D90003A000020400000204200002044000020B3
:102DA000F8FB453C2008002048080020342C014056
:102DB000005539476C0800200000004848000020FA
:102DC0005400002058000020DB0F49404C00002038
:102DD0007C00002004010020740000206C00002012
:102DE0006800002000000020B005002047000020FF
:102DF0001C050020704700002DE9F041044600BF8B
:102E00003D48806800F01F000546206804F021FE60
:102E100010B10220BDE8F0812068C06800F00047D2
:102E20002068C06C00F4C07030B92FB9E06D40F07C
:102E30002000E0650120EDE700BF94F8580001286C
:102E400001D10220E6E7012084F8580000BF2046A7
:102E5000FEF75AFF0646002E46D1E06D00F4807062
:102E600020B1206E20F00800206601E000202066DE
:102E7000E06D42F20101884340F48050E0651F4953
:102E80002068884202D14FF0A04000E0206821680D
:102E9000884200D01DB9E06D20F48010E06560200C
:102EA0002168086000BF002084F8580000BF134963
:102EB0002068884202D14FF0A04000E020682168DD
:102EC000884204D01DB1062D01D0072D07D12068FE
:102ED00004F0B5FD68B9206804F0C0FD09E0E06DBC
:102EE00040F48010E06504E000BF002084F8580042
:102EF00000BF30468EE70000000300500001005084
:102F00002DE9F041044600BF5248806800F01F00E0
:102F10000546206804F09DFD10B10220BDE8F08157
:102F20002068C06800F000472068C06C00F4C070E2
:102F300030B92FB9E06D40F02000E0650120EDE7E9
:102F400000BF94F85800012801D10220E6E70120D3
:102F500084F8580000BF2046FEF7D6FE0646002E35
:102F600070D1E06D00F4807020B1206E20F0080078
:102F7000206601E000202066E06D42F201018843F6
:102F800040F48050E06534492068884202D14FF017
:102F9000A04000E020682168884200D01DB9E06DA3
:102FA00020F48010E06560202168086000BF0020E8
:102FB00084F8580000BF2068C06800F4001028B1F1
:102FC0002068406840F4806021684860A069082853
:102FD0000CD12068406820F02000216848602068FB
:102FE000406840F04000216848600CE0206840687C
:102FF00020F04000216848602068406840F02000D0
:103000002168486000BF00BF13492068884202D190
:103010004FF0A04000E020682168884204D01DB134
:10302000062D01D0072D07D1206804F008FD70B9E6
:10303000206804F013FD0AE0E06D40F48010E065C4
:1030400005E0FFE700BF002084F8580000BF3046CD
:1030500064E7000000030050000100507047704713
:103060002DE9F0439BB004460E464FF0000830684F
:1030700000B100BF00BF94F85800012803D102201E
:103080001BB0BDE8F083012084F8580000BF002089
:10309000179018902068B0F1A04F02D131480090ED
:1030A00001E000200090009850B9E06D40F0200051
:1030B000E06500BF002084F8580000BF0120DFE772
:1030C000009804F0EEFC0746206804F0EAFCD8BB48
:1030D000D7BB254D306800B394F83800716841EAD9
:1030E0004030A96821F460410843A8604FF0A04037
:1030F00004F0C8FC81461B4804F0C4FC49EA0009FE
:10310000B9F1000F27D1B16830680843A96840F6CB
:103110001F7291430843A8601DE0A86820F4604036
:10312000A8604FF0A04004F0ADFC81460D4804F0CB
:10313000A9FC49EA0009B9F1000F0CD1A86840F6D2
:103140001F718843A86006E0FFE7E06D40F02000B3
:10315000E0654FF0010800BF002084F8580000BF70
:1031600040468DE700010050000300502DE9F84F64
:1031700005460C464FF0000A00200090FE49E0682A
:10318000884200D000E000BF00BF95F85800012839
:1031900002D10220BDE8F88F012085F8580000BF59
:1031A000286804F079FC00287DD12968D4E9002042
:1031B00001F1300CC0F3012B0CEB8B03D3F800C0F2
:1031C00000F01F0E4FF01F0B0BFA0EFB2CEA0B0C3E
:1031D00000F01F0BC2F3846E0EFA0BFE4CEA0E0CCD
:1031E000C3F800C000BF286804F056FC8146286878
:1031F00004F02AFC8046B9F1000F64D1B8F1000F49
:10320000FBD1A068B0F1004F0AD1216800222868E4
:1032100004F055FC4FF00041286804F09AFC08E0E7
:10322000A2682168286804F04AFC0021286804F09C
:1032300090FC60692968C968C1F3C101490000FABE
:1032400001F7206904283FD028682268216900F12D
:10325000600C0CEB8103D3F800C0DFF820B30CEA5C
:103260000B0C02F0F84B4BF0004B4BEA070B4CEA0F
:103270000B0CC3F800C000BF2868A269216900F1E7
:10328000600C0CEB8103D3F800C02CF0807C4CEA7E
:10329000020CC3F800C000BF2868227F2169012A00
:1032A00002D1520601E0C6E10022134600F1600C93
:1032B0000CEB8102D2F800C02CF0007C4CEA030C2D
:1032C000C2F800C000BFA7E00021286804F0A5FBF9
:1032D000C0F3120030B90021286804F09EFBC0F34F
:1032E000846007E00021286804F097FB90FAA0F0C2
:1032F000B0FA80F02168C1F3120119B92168C1F355
:10330000846104E0216891FAA1F1B1FA81F1884267
:1033100004D100221146286804F005FC0121286828
:1033200004F07BFBC0F3120030B90121286804F0DF
:1033300074FBC0F3846007E00121286804F06DFB92
:1033400090FAA0F0B0FA80F02168C1F3120119B927
:103350002168C1F3846104E0216891FAA1F1B1FA16
:1033600081F1884204D100220121286804F0DBFBAE
:103370000221286804F051FBC0F3120030B9022189
:10338000286804F04AFBC0F3846007E00221286843
:1033900004F043FB90FAA0F0B0FA80F02168C1F38A
:1033A000120119B92168C1F3846104E0216891FA1E
:1033B000A1F1B1FA81F1884204D1002202212868EA
:1033C00004F0B1FB0321286804F027FBC0F31200CE
:1033D00030B90321286804F020FBC0F3846007E0C3
:1033E0000321286804F019FB90FAA0F0B0FA80F0ED
:1033F0002168C1F3120119B92168C1F3846104E0A5
:10340000216891FAA1F1B1FA81F1884204D1002238
:103410000321286804F087FB286804F02EFB0028AD
:1034200072D12868E2682168D0F8B030C1F3120C7C
:1034300023EA0C0302F0180BDFF844C12CFA0BFC52
:103440000CEA010C43EA0C03C0F8B03000BF4A4953
:10345000E068884258D12368C3F312031BB923687C
:10346000C3F3846304E0236893FAA3F3B3FA83F30A
:103470005B1C03F01F03092B3ED82368C3F3120320
:103480001BB92368C3F3846304E0236893FAA3F3AE
:10349000B3FA83F35B1C03F01F034FF0010C0CFA2B
:1034A00003FC2368C3F312031BB92368C3F38463CB
:1034B00004E0236893FAA3F3B3FA83F35B1C03F0ED
:1034C0001F034CEA836C2368C3F312031BB9236800
:1034D000C3F3846304E0236893FAA3F3B3FA83F39A
:1034E0005B1C03F01F0303EB43034FF0000B4BEA9D
:1034F00003534CEA030347E02368C3F3120323B9E1
:103500002368C3F3846305E043E0236893FAA3F3DD
:10351000B3FA83F35B1C03F01F034FF0010C0CFAAA
:1035200003FC2368C3F312031BB92368C3F384634A
:1035300004E0236893FAA3F3B3FA83F35B1C03F06C
:103540001F034CEA836C2368C3F312031BB923687F
:10355000C3F3846304E0236893FAA3F3B3FA83F319
:103560005B1C03F01F030A3B03EB43034FF0007B9C
:103570004BEA035306E0000000007F4000F0FF0329
:10358000FFFF07004CEA03031946A268286804F00D
:1035900096FA2F492068084050B300BF2D48806834
:1035A00000F0E07600BF2C492068884203D02B4908
:1035B000206888421DD106F40000D0B92868B0F117
:1035C000A04F3ED146F40001224804F0A0FA24485E
:1035D00000682449B0FBF1F0401C00EB4000800083
:1035E000009002E00098401E009000980028F9D159
:1035F00027E01D49206888420CD106F0807048B948
:103600001A49286888421CD046F08071114804F09D
:103610007EFA16E016492068884212D106F480002E
:1036200078B91249286888420BD046F480010948CD
:1036300004F06DFA05E0E86D40F02000E8654FF019
:10364000010A00BF002085F8580000BF5046A1E5E0
:103650000000088000030050000021C31000C0904B
:10366000B8000020400D0300000052C700010050C8
:10367000000084CB704770472DE9F84F04460020C6
:1036800000902068056820684668C54804F0C0F9C5
:10369000074605F00200022811D106F002000228B8
:1036A0000DD1E06D00F0100018B9E06D40F400603D
:1036B000E0652046FEF7EAFE02202168086005F07A
:1036C0000400042803D106F00400042807D005F004
:1036D000080008285FD106F0080008285BD1E06DDB
:1036E00000F0100018B9E06D40F40070E06520684B
:1036F00004F0DCF9002848D0AA492068884202D1A9
:103700004FF0A04000E020682168884204D01FB13B
:10371000052F01D0092F03D12068D0F80C800AE0D2
:10372000A0492068884202D14FF0A04000E0206804
:103730008346DBF80C8008F40050B0F5005F24D01D
:103740002068006800F0080008281ED1206804F0F6
:10375000A3F990B92068406820F00C002168486007
:10376000E06D20F48070E065E06D00F4805060B999
:10377000E06D40F00100E06507E0E06D40F0100012
:10378000E065206E40F0010020662046FFF772FFE2
:103790000C202168086005F02000202803D106F0E5
:1037A0002000202807D005F04000402872D106F004
:1037B000400040286ED1E06D00F0100018B9E06DB7
:1037C00040F40050E0652068C16C01F4C07109B993
:1037D000012100E000218A4600BF206804F066F95C
:1037E000814670492068884202D14FF0A04000E035
:1037F00020682168884204D01FB1062F01D0072F0E
:1038000003D12068D0F80C800AE06649206888421D
:1038100002D14FF0A04000E020688346DBF80C8026
:10382000BAF1000F30D008F0007028B1B9F1000FE4
:103830002AD008F4005038BB2068006800F040002F
:10384000402821D108F40010F0B9206804F0FCF8F9
:1038500090B92068406820F0600021684860E06D01
:1038600020F48050E065E06D00F4807060B9E06D98
:1038700040F00100E06507E0E06D40F01000E06519
:10388000206E40F0010020662046FFF717F9602007
:103890002168086005F0800080280DD106F08000C6
:1038A000802809D1E06D40F48030E065204600F0CA
:1038B000A9F980202168086005F48070B0F5807F48
:1038C0000FD106F48070B0F5807F0AD1E06D40F42E
:1038D0000030E0652046FFF7C1FB4FF4807021689F
:1038E000086005F40070B0F5007F0FD106F4007099
:1038F000B0F5007F0AD1E06D40F48020E0652046FD
:10390000FFF7ADFB4FF400702168086005F0100070
:1039100010282AD106F01000102826D1E06B10B92B
:103920000120009010E047B100BF1D48806800F4FE
:10393000604048B10120009006E02068C06800F0B7
:10394000010008B101200090009801280AD1E06D23
:1039500040F48060E065206E40F002002066204662
:10396000FFF789FE10202168086005F48060B0F53B
:10397000806F13D106F48060B0F5806F0ED1E06DDA
:1039800040F48040E065206E40F0080020664FF46F
:103990008060216808602046FFF72CFABDE8F88FA8
:1039A00000030050000100502DE9F84304464FF099
:1039B00000080020009014B90120BDE8F883606978
:1039C00020B194F82400012800D100BFE06D30B987
:1039D000204600F019F90020206684F8580020687D
:1039E0008168C1F3407131B1206881687E4A11401D
:1039F000816000BF00BF206804F049F8B0B92068BA
:103A000081687A4A114041F08051816000BF784856
:103A100000687849B0FBF1F0401C4000009002E0E3
:103A20000098401E009000980028F9D1206804F00A
:103A30002EF848B9E06D40F01000E065206E40F0CF
:103A4000010020664FF00108206804F025F80646C2
:103A5000E06D00F01000002877D1002EFCD1E06D61
:103A600020F4807040F00200E065206804F005F862
:103A7000B0B94FF0A04004F000F881465E4803F072
:103A8000FCFF49EA0009B9F1000F09D160685B4900
:103A9000896821F47C110143584A916000BF00BF3E
:103AA000607FE16B41EA4030E1680843A168084368
:103AB00094F8241040EA014594F82400012803D129
:103AC000208D401E45EA4045E06A28B1A08D00F4F3
:103AD0007870216B084305432068C0684849084056
:103AE00028432168C8602068006920F04060616B4D
:103AF000084321680861206803F0A6FF0746002EEE
:103B000050D1EFBB207F002141EA803194F838008A
:103B100041EA40052068C06844F202018843284316
:103B20002168C860206988B12068006940F480304D
:103B3000216808612068D0F8C0006FF30D0021698A
:103B400008432168C1F8C0000EE045E02068006924
:103B500020F48030216808612068D0F8C0006FF33D
:103B60000D002168C1F8C00094F84000012813D16D
:103B7000606C40F00101A06C0843E16C084300E078
:103B800010E0216D08432168096940F2FC729143FD
:103B900008432168086105E02068006920F0010001
:103BA000216808616069012809D12068006B20F054
:103BB0000F00216A491E08432168086305E0206858
:103BC000006B20F00F0021680863E06D20F0020018
:103BD00040F00100E06505E0E06D40F01000E065B8
:103BE0004FF001084046E8E6C0FFFF5FC0FFFF7FDF
:103BF000B8000020400D03000001005000030050F9
:103C00000740F0FF7047000010B598B0044614213B
:103C100013A8FCF76CFC442102A8FCF768FC2068A0
:103C2000B0F1A04F5BD14FF40040029040031190DF
:103C300002A801F021FC08B1FEF797FB5748006885
:103C4000401C564908600846006801280DD100BF95
:103C50005348C06C40F400505149C8640846C06CD9
:103C600000F40050019000BF00BF00BF4C48C06C82
:103C700040F001004A49C8640846C06C00F00100E9
:103C8000019000BF00BF00BF0846C06C40F00200BA
:103C9000C8640846C06C00F00200019000BF00BF7D
:103CA00004201390032014900020159013A94FF0C6
:103CB000904000F0E5FE41F60200139003201490BE
:103CC0000020159013A9374800F0DAFE00221146B3
:103CD000122001F0B9F9122001F0A2F95CE032499A
:103CE0002068884258D1C00102904003119002A878
:103CF00001F0C2FB08B1FEF738FB28480068401C01
:103D0000264908600846006801280DD100BF2448F4
:103D1000C06C40F400502249C8640846C06C00F4EE
:103D20000050019000BF00BF00BF1D48C06C40F0B4
:103D300004001B49C8640846C06C00F004000190F0
:103D400000BF00BF00BF0846C06C40F00100C8645F
:103D50000846C06C00F00100019000BF00BF0E20BB
:103D60001390032014900020159013A90F4800F021
:103D700087FE40201390032014900020159013A973
:103D80004FF0904000F07CFE00221146122001F01E
:103D90005BF9122001F044F918B010BD600000205A
:103DA00000100240000400480001005000080048D4
:103DB0002DE9F843044600200090804614B94FF0E6
:103DC0000108B7E02068006800F00040B0F1004F43
:103DD00002D14FF00108ADE0607F28B900202077C4
:103DE0002062204600F0B4F82068006800F4000764
:103DF000D4E90110084361690843E1680843216977
:103E000040EA0106206800684C49084030432168B8
:103E100008602068006800F4000088B187B948484D
:103E200000684849B0FBF1F0401C00EB80008000C6
:103E3000009002E00098401E009000980028F9D100
:103E400041492068884202D14FF4001010E03E49F9
:103E5000091D2068884202D14FF4800008E03A49E9
:103E600008312068884201D1800601E04FF080408F
:103E70000546207E00F00300002851D0207E00F08F
:103E8000100038B100BF3148006828432F4908604E
:103E900000BF07E000BF2D480068A8432B49086019
:103EA00000BF00BF207E00F0200048B100BF2748BF
:103EB000001D006828432549091D086000BF09E06E
:103EC00000BF2248001D0068A8432049091D086062
:103ED00000BF00BF284603F049FE207E00F002002C
:103EE00048B100BF1948001F006828431749091F3F
:103EF000086000BF02E0284603F03EFE207E00F08E
:103F0000010048B100BF11480838006828430F4934
:103F10000839086000BF09E0284603F035FE05E0D7
:103F2000284603F029FE284603F02EFE607F08B9DC
:103F3000012060774046BDE8F88300000F7E00FF57
:103F4000B8000020400D03000002014008040140B9
:103F500010B586B00446142101A8FCF7C8FA0F4931
:103F60002068884217D100BF0D48C06C40F00200A5
:103F70000B49C8640846C06C00F00200009000BF06
:103F800000BF02200190032002900020039001A9AD
:103F9000044800F075FD06B010BD000000020140AD
:103FA00000100240000400482DE9F84F04460D4679
:103FB00016460020009004B115B90120BDE8F88F25
:103FC000E869012800D100BFA868042800D100BF1B
:103FD00000BF6079012801D10220EFE70120607164
:103FE00000BF02202071A868042859D100F034FED7
:103FF0008246E6B911E000F02FFEA0EB0A0001288E
:104000000BD92068406B00F4004030B1206940F0CB
:104010000800206103202071D0E72068406B00F485
:1040200000400028E7D1686A216808641BE011E0BD
:1040300000F012FEA0EB0A0001280BD92068406BAB
:1040400000F0004030B1206940F0080020610320FA
:104050002071B3E72068406B00F000400028E7D1F2
:10406000686A216848642068806C06F0100240F29B
:10407000FF319140884306F01002A96A914008433D
:10408000216888642068C06C06F01002FF2191400E
:10409000884306F01002E96A914008432168C86429
:1040A000E86901280FD12068876B06F010011F20F6
:1040B00088408743D5F8208006F0100008FA00F009
:1040C0000743206887632068C76B06F0100107204C
:1040D00088408743A869012802D14FF000090CE00D
:1040E000A869022802D14FF0010906E0686910B9F9
:1040F0004FF0010901E04FF000096969A868084321
:1041000040EA090806F010014FF4807088408743A8
:104110002879012801D1000200E0002040EA0808C7
:1041200006F010014FF40070884087436879012839
:1041300001D1400200E0002040EA080827F440478F
:10414000286802280FD101F061FC83462C498B4579
:1041500002D947F4004708E02A48834502D947F4CA
:10416000804702E001E02868074306F0100108FAE2
:1041700001F007432068C7632068006806F010025A
:104180004FF48041914088432168086020680768A7
:1041900006F0100140F6FE7088408743D5F80C8089
:1041A00006F0100108FA01F0074320680760206854
:1041B000006806F01002C021914088432168086021
:1041C000287BC0F38308287CC0F3830048EA0028DA
:1041D0002068006E06F0100240F60F71914088438F
:1041E00006F0100108FA01F1084321680866012071
:1041F000207100BF0020607100BF0098DEE6000063
:104200000068890900B4C40410B504460CB9012043
:1042100010BD207920B900206071204600F008F818
:104220000220207100202061012020710020EFE792
:1042300010B586B00446142101A8FCF758F91F49AF
:104240002068884226D100BF1D48C06C40F48030F1
:104250001B49C8640846C06C00F48030009000BF61
:1042600000BF00BF0846C06C40F00100C8640846AB
:10427000C06C00F00100009000BF00BF1020019052
:10428000032002900020039001A94FF0904000F01D
:10429000F7FB11E00B49206888420DD100BF0848A8
:1042A000C06C40F480200649C8640846C06C00F425
:1042B0008020009000BF00BF06B010BD0008005075
:1042C00000100240001000500146002091F8252007
:1042D000022A03D00422CA63012027E00A68126878
:1042E00022F00E020B681A608A6C126822F4807247
:1042F0008B6C1A600A68126822F001020B681A605F
:1043000091F8442002F01F0301229A400B6C5A607E
:10431000D1E913325A604A6D42B14A6D126822F4F3
:1043200080724B6D1A60D1E916325A60012281F811
:10433000252000BF002281F8242000BF704770B5FF
:104340000446002594F8250002280BD00420E063E1
:10435000012084F8250000BF002084F8240000BF5D
:10436000012534E02068006820F00E002168086014
:104370002068006820F0010021680860A06C0068D7
:1043800020F48070A16C086094F8440000F01F01D4
:1043900001208840216C4860D4E913104860606DAA
:1043A00040B1606D006820F48070616D0860D4E9F0
:1043B00016104860012084F8250000BF002084F812
:1043C000240000BFA06B10B12046A16B884728468F
:1043D00070BD70B50446206C05682068066894F8C6
:1043E000440000F01F01042088402840E0B106F09E
:1043F0000400C8B12068006800F0200028B92068D7
:10440000006820F004002168086094F8440000F07F
:104410001F0104208840216C4860206B002856D082
:104420002046216B884752E094F8440000F01F01B9
:1044300002208840284018B306F0020000B320682C
:10444000006800F0200040B92068006820F00A00F1
:1044500021680860012084F8250094F8440000F0E9
:104460001F0102208840216C486000BF002084F8B2
:10447000240000BFE06A50B32046E16A884726E086
:1044800094F8440000F01F01082088402840F0B153
:1044900006F00800D8B12068006820F00E002168FE
:1044A000086094F8440000F01F0101208840216C4E
:1044B00048600120E06384F8250000BF002084F8F4
:1044C000240000BF606B10B12046616B884770BD4F
:1044D00070B504460CB9012070BD2F492068884290
:1044E0000BD22E492068401A1421B0FBF1F0800055
:1044F00060642A48083820640AE027492068401A86
:104500001421B0FBF1F08000606423480838206477
:10451000022084F825002068056847F6F07085437E
:10452000D4E9020108432169084361690843A1698C
:104530000843E1690843216A084305432068056090
:104540002046FDF777FCA068B0F5804F01D1002030
:1045500060602079A16C0860D4E91310486060683D
:1045600060B16068042809D82046FDF785FC00206A
:10457000616D0860D4E91610486003E000206065B2
:10458000A065E0650020E063012084F8250000209C
:1045900084F8240000BF9FE708040240080002409E
:1045A0002DE9F04104460D4616461F464FF000081F
:1045B00000BF94F82400012802D10220BDE8F08158
:1045C000012084F8240000BF94F8250001283FD181
:1045D000022084F825000020E0632068006820F0B5
:1045E0000100216808603B46324629462046FDF717
:1045F00055FC206B30B12068006840F00E00216847
:1046000008600BE02068006820F004002168086062
:104610002068006840F00A0021680860A06C00680B
:1046200000F4803028B1A06C006840F48070A16C68
:104630000860606D28B1606D006840F48070616D45
:1046400008602068006840F001002168086006E00A
:1046500000BF002084F8240000BF4FF0020840464D
:10466000ACE7000070B504460CB9012070BD81496B
:104670002068884200D100BFA068B0F5407F00D11B
:1046800000BF94F85C0028B9002084F85D00204643
:1046900000F0F4F82068806920F01000216888613B
:1046A00000F0DAFA05460DE000F0D6FA401B0A28C1
:1046B00008D9206E40F001002066032084F85C00D9
:1046C0000120D3E72068806900F008000828EBD0BB
:1046D0002068806940F001002168886100F0BCFA20
:1046E00005460DE000F0B8FA401B0A2808D9206EF4
:1046F00040F001002066032084F85C000120B5E74B
:104700002068806900F001000028EBD020688069F3
:1047100040F002002168886156492068884202D131
:10472000554960680860207C012806D120688069AE
:1047300020F040002168886105E02068806940F031
:10474000400021688861607C012806D1206880696A
:1047500040F480402168886105E02068806920F489
:10476000804021688861A07C012806D1206880698A
:1047700020F480502168886105E02068806940F459
:104780008050216888612068806920F44070A168A9
:104790000843216888612068806920F0A4002168AE
:1047A00088612068006920F0100021680861E068D5
:1047B000012806D12068806940F0040021688861E2
:1047C00020E0E068F0B1E068022815D02068806938
:1047D00040F08000216888612068006940F0100086
:1047E00021680861E06803280CD12068806940F0E6
:1047F00020002168886105E02068806940F0200081
:1048000021688861207E401E4106E069401E41EA21
:104810000020216A491E0843A18A491E40EA01403E
:104820002168C861A068B0F5407F0FD1A06A401E22
:10483000E16A491E40EA0121206B401E41EA001155
:10484000A08C401E41EA00402168C8602068D0F872
:10485000C000E16B08432168C1F8C0002046FDF7A5
:1048600087FD0020A0652066012084F85C00002000
:10487000FCE60000006400400065004010B598B000
:104880000446142113A8FBF732FE442102A8FBF7CB
:104890002EFE1C492068884232D1801402904003C9
:1048A0000E9002A800F0E8FD08B1FDF75EFD00BF24
:1048B0001548806D40F00070134988650846806D8A
:1048C00000F00070019000BF00BF00BF0846C06C40
:1048D00040F00100C8640846C06C00F0010001907F
:1048E00000BF00BF4FF4C05013900220149000206E
:1048F000159016900920179013A9C00600F0C0F873
:1049000018B010BD006400400010024010B504460D
:10491000402C3CD14848007808B9012000E0002034
:104920004549087008460078C0B90021434802F0A4
:104930000DFB0421414802F009FB08213F4802F029
:1049400005FB00213D4801F0C7FD04213B4801F073
:10495000C3FD0821394801F0BFFD6BE00021374855
:1049600002F04EFA0421354802F04AFA0821334891
:1049700002F046FA0021314801F03AFD04212F48A7
:1049800001F036FD08212D4801F032FD52E0802C67
:1049900027D12B4890ED021BB0EE410AF0EE610AE0
:1049A0009FED281B53EC112B51EC100B06F0F2F885
:1049B000234AC2E90201104690ED021BB0EE410A03
:1049C000F0EE610A9FED211B53EC112B51EC100B03
:1049D00005F070FF2ED89FED1D0B194880ED020BDE
:1049E00028E0012C26D1164890ED021BB0EE410ABA
:1049F000F0EE610A9FED131B53EC112B51EC100BE1
:104A000005F020FE0E4AC2E90201104690ED021B9D
:104A1000B0EE410AF0EE610A9FED0E1B53EC112B34
:104A200051EC100B06F080F804D89FED0C0B0448F5
:104A300080ED020B10BD0000340000208404002033
:104A40002008002000000000000059400000000085
:104A50000070A7C0000000000070A7400000000028
:104A60000000A94010B5044604480068204020B169
:104A7000024804602046FFF749FF10BD14040140BE
:104A800078B502460B460021CAE001268E401D681B
:104A900005EA0604002C73D01D7905F00305012DED
:104AA00004D01D7905F00305022D13D190684E0046
:104AB0000325B540A8434E00DD68B540284390600B
:104AC000506801258D40A8431D79C5F300158D4020
:104AD000284350601D7905F00305032D09D0D068E7
:104AE0004E000325B540A8434E009D68B5402843BD
:104AF000D0601D7905F00305022D13D1CE0802F117
:104B0000200555F826004D07EE0E0F25B540A843A9
:104B10004E07F60E1D69B5402843CE0802F1200568
:104B200045F8260010684E000325B540A8431D79BE
:104B300005F003054E00B540284310605D6805F49C
:104B40004035002D6BD000BF384D2D6E45F001056E
:104B5000364E356635462D6E05F00105009500BFD1
:104B600000BF4FEAB6358E0855F826008D072E0F88
:104B70000F25B540A843B2F1904F02D100251AE0AD
:104B80004DE02B4DAA4201D1012514E0294DAA4246
:104B900001D102250FE0284DAA4201D103250AE0E8
:104BA000264DAA4201D1042505E0254DAA4201D196
:104BB000052500E006258E07360FB5402843214D18
:104BC0008E0845F82600204D2868A0435D6805F44E
:104BD000801505B120431C4D28602D1D2868A04379
:104BE0005D6805F4001505B12043174D2D1D2860A3
:104BF000154D2D1F2868A0435D6805F4003505B1EB
:104C00002043114D2D1F28602D1F2868A0435D688B
:104C100005F4803505B120430B4D083D2860491C43
:104C20001D68CD40002D7FF430AF78BD00100240EC
:104C30000004004800080048000C0048001000482C
:104C40000014004808000140080401400AB18161D5
:104C500000E0816270470000014800687047000072
:104C6000AC000020024692F8410020282DD100BF60
:104C700092F84000012801D102207047012082F8FB
:104C8000400000BF242082F841001068006820F036
:104C90000100136818601068006820F480501368E1
:104CA000186010680068084313681860106800688E
:104CB00040F0010013681860202082F8410000BF16
:104CC000002082F8400000BFD7E70220D5E710B5EA
:104CD00002460B4692F8410020282AD100BF92F8E4
:104CE0004000012801D1022010BD012082F84000BF
:104CF00000BF242082F841001068006820F0010005
:104D0000146820601068016821F4706141EA032191
:104D1000106801601068006840F0010014682060AD
:104D2000202082F8410000BF002082F8400000BF30
:104D3000DAE70220D8E770B5044620688569206864
:104D40000668606B20B1324629462046636B98475F
:104D500070BD000010B504460CB9012010BD94F8D8
:104D6000410028B9002084F84000204600F05EF899
:104D7000242084F841002068006820F001002168A8
:104D80000860606820F070602168086120688068B1
:104D900020F4004021688860E068012805D1A068FF
:104DA00040F400402168886004E0A06840F40440BA
:104DB00021688860E068022806D12068406840F4D5
:104DC00000602168486005E02068406820F40060C9
:104DD000216848602068406813490843216848609A
:104DE0002068C06820F400402168C860D4E904014C
:104DF0000843A16940EA01202168C860D4E907019D
:104E00000843216808602068006840F001002168BC
:104E1000086000206064202084F8410000202063A6
:104E200084F8420000BF99E70080000210B598B0F6
:104E30000446142113A8FBF75AFB442102A8FBF7F0
:104E400056FB3C492068884271D1801502900020B1
:104E50000A9002A800F010FB08B1FDF786FA00BF27
:104E60003548C06C40F004003349C8640846C06C43
:104E700000F00400019000BF00BF4FF44070139099
:104E8000122014900020159016900820179013A956
:104E90002A48FFF7F5FD00BF2748806D40F08040AD
:104EA000254988650846806D00F08040019000BF6C
:104EB00000BF23482349086014204860002121488E
:104EC0008160C16080210161002141618161C16116
:104ED0000162FFF7FDFA08B1FDF747FA00BF194874
:104EE000E063846200BF164814301749086015203B
:104EF00048601021144881600021C1608021016157
:104F0000002141618161C1610162FFF7E1FA08B1ED
:104F1000FDF72BFA00BF0C48A063846200BF00229B
:104F200011465C2000F090F85C2000F079F818B091
:104F300010BD00000078004000100240000800484A
:104F4000080002401003002070030020034800689E
:104F5000034909680844014908607047AC00002013
:104F6000B400002010B50024032000F0ABF80F209F
:104F700000F008F808B1012401E000F02FF8204605
:104F800010BD000070B50446002511480068D8B176
:104F90000F4800684FF47A71B1FBF0F00D490968D1
:104FA000B1FBF0F6304601F055F858B9102C07D295
:104FB00000222146501E00F047F80748046004E034
:104FC000012502E0012500E00125284670BD000012
:104FD000B4000020B8000020B000002008B500BFD9
:104FE0000E48006E40F001000C4908660846006E4D
:104FF00000F00100009000BF00BF00BF0846806DB8
:1050000040F0805088650846806D00F08050009028
:1050100000BF00BF00F026FA08BD000000100240EB
:105020000146084600280DDB00BF00BF00F01F034B
:1050300001229A4043099B0003F1E023C3F80021B9
:1050400000BF00BF00BF70472DE9F05F80460D46EE
:10505000164604F0BBFA074639462A46334601F0A5
:105060000700C0F1070ABAF1040F02D94FF0040A91
:1050700001E0C0F1070AD14600F1040ABAF1070FB6
:1050800002D24FF0000A01E0A0F1030AD4464FF02B
:10509000010A0AFA09FAAAF1010A0AEA020A0AFA54
:1050A0000CFA4FF0010B0BFA0CFBABF1010B0BEA06
:1050B000030B4AEA0B042146404604F08FFABDE890
:1050C000F09F000000BF00F00702064B19684FF682
:1050D000FF031940044B0B4343EA0221014B1960C3
:1050E00000BF70470CED00E00000FA0538B504463B
:1050F00000250CB9012038BD94F83A00052801D1EB
:105100000120F8E794F83A00022801D10120F2E7E3
:10511000A06800B900BFA06900B100BFA068402826
:1051200000D100BFE06A102800D100BF00BF424894
:10513000006E40F00100404908660846006E00F02D
:105140000100009000BF00BF94F83A0010B90020A1
:1051500084F83900204600F073F8A068402802D097
:10516000A068602826D12068006820F01000E16A5D
:10517000084321680860D4E9010108432169084314
:10518000217D012901D1090200E000210843616A63
:105190000843A16A0843218E40EAC14194F83400D3
:1051A00041EA006021680968244A114008432168E7
:1051B000086027E02068006820F01000E16A0843DA
:1051C00021680860D4E901010843E16808432169C6
:1051D0000843217D012901D1090200E00021084393
:1051E000616A0843A16A0843218E40EAC14194F8EC
:1051F000340041EA006021680968104A1140084300
:10520000216808602068806900F0004058B9D4E93E
:1052100006010843216A08432168896921F03F019A
:1052200008432168886194F83A0010B9012084F895
:105230003A0028465FE7000000100240113E00E0FF
:1052400010B586B00446142101A8FBF750F92E4989
:105250002068884219D100BF2C48C06C40F0010082
:105260002A49C8640846C06C00F00100009000BFE5
:1052700000BF0E200190032002900020039001A99E
:105280004FF09040FFF7FCFB3BE01F49091D2068F1
:10529000884219D100BF1D48C06C40F001001B4975
:1052A000C8640846C06C00F00100009000BF00BF59
:1052B000E0200190032002900020039001A94FF00C
:1052C0009040FFF7DDFB1CE00F4908312068884261
:1052D00017D100BF0D48C06C40F002000B49C864F4
:1052E0000846C06C00F00200009000BF00BF07201D
:1052F0000190032002900020039001A90448FFF7C9
:10530000BFFB06B010BD00000003014000100240CA
:10531000000400480146002009B9012014E091F87A
:105320003A20052A01D101200EE091F83A20012A05
:1053300009D10A68126842F001020B681A6004225F
:1053400081F83A2000E001207047000002468ABB45
:105350004148006800F4C060B0F5806F2BD13E4832
:105360008030006820F480703B4BC3F88000184602
:10537000006820F4C06040F400701860374800688E
:1053800032235843364BB0FBF3F0411C00E0491E7A
:105390003148406900F48060B0F5806F01D1002988
:1053A000F5D12D48406900F48060B0F5806F51D18F
:1053B0000320704708E028488030006820F480709F
:1053C000254BC3F8800045E0B2F5007F3AD1224872
:1053D000006800F4C060B0F5806F2AD11E488030AC
:1053E000006840F480701C4BC3F8800018460068C9
:1053F00020F4C06040F40070186018480068322340
:105400005843174BB0FBF3F0411C00E0491E124813
:10541000406900F48060B0F5806F01D10029F5D1BA
:105420000D48406900F48060B0F5806F12D1032010
:10543000BFE709488030006840F48070064BC3F82D
:10544000800007E00448006820F4C06040F48060F9
:10545000014B18600020ACE700700040B80000204D
:1054600040420F000348806840F480400149886052
:1054700070470000007000402DE9F8430446002703
:10548000B846206800F40020B0F5002F73D1B9466B
:10549000D348806D00F0805078B900BFD048806D4F
:1054A00040F08050CE4988650846806D00F08050FD
:1054B000009000BF00BF4FF00109CA48006840F4E7
:1054C0008070C8490860FFF7C7FB064606E0FFF793
:1054D000C3FB801B022801D9032705E0C1480068EF
:1054E00000F480700028F2D000BF002F46D1BC48E5
:1054F0009030006800F44075CDB1206CA84216D001
:10550000B7489030006820F44075B548D0F8900056
:1055100040F48030B249C1F890000846D0F89000BD
:1055200020F48030C1F890000846C0F8905005F093
:105530000100A0B1FFF790FB064608E0FFF78CFBE7
:10554000801B41F28831884201D9032706E0A44834
:105550009030006800F002000028EFD000BF5FB973
:105560009F489030006820F44070216C08439C49AB
:10557000C1F8900003E00CE0B84600E0B846B9F18D
:10558000010F05D19648806D20F0805094498865C0
:1055900000BF207800F0010048B1914888300068D1
:1055A00020F00300616808438D49C1F88800207825
:1055B00000F00200022809D189488830006820F0F4
:1055C0000C00A16808438649C1F88800207800F0E3
:1055D0000400042809D182488830006820F0300097
:1055E000E16808437E49C1F88800207800F008008F
:1055F000082809D17A488830006820F0C000216965
:1056000008437749C1F88800207800F0200020285E
:1056100009D173488830006820F44060616908430C
:105620006F49C1F88800207800F04000402809D177
:105630006B488830006820F44050A16908436849ED
:10564000C1F88800207800F08000802809D16448E3
:105650008830006820F44040E16908436049C1F89F
:105660008800208800F48070B0F5807F09D15C4804
:105670008830006820F44030216A08435849C1F856
:105680008800208800F40070B0F5007F09D15448EC
:105690008830006820F44020616A08435049C1F80E
:1056A0008800208800F48060B0F5806F13D14C48EA
:1056B0008830006820F44010A16A084348498831C6
:1056C0000860A06AB0F5801F05D14548C06840F465
:1056D00080104349C860208800F40060B0F5006F76
:1056E00013D13F488830006820F44000E16A084345
:1056F0003B4988310860E06AB0F5800F05D1384831
:10570000C06840F480103649C860208800F480509A
:10571000B0F5805F13D132488830006820F04070C7
:10572000216B08432E4988310860206BB0F1807FDF
:1057300005D12B48C06840F480102949C8602088F2
:1057400000F40050B0F5005F13D1254888300068A0
:1057500020F04060616B0843214988310860606B2C
:10576000B0F1006F05D11E48C06840F480101C499C
:10577000C860208800F48040B0F5804F13D11848ED
:105780008830006820F04060A16B084314498831DC
:105790000860A06BB0F1006F05D11148C06840F4FB
:1057A00080100F49C860208800F40040B0F5004F19
:1057B00013D10B488830006820F04050E16B08435B
:1057C000074988310860E06BB0F1805F05D104487B
:1057D000C06840F480300249C8604046BDE8F883A4
:1057E00000100240007000402DE9F04104460D46D3
:1057F0004FF0000814B90120BDE8F0817D48006831
:1058000000F00F00A8420ED27A48006820F00F0086
:105810002843784908600846006800F00F00A84255
:1058200001D00120E8E7207800F00100002864D0D2
:105830006068032823D17048006800F0007008B940
:105840000120D9E702F076FE06466C48864237D939
:105850006948806800F0F00030B1207800F0020064
:1058600002282DD1A06858BB6348806820F0F00062
:1058700040F08000604988604FF0800820E0606858
:10588000022806D15C48006800F4003040B90120CD
:10589000B2E75948006800F4806008B90120ABE71E
:1058A00000F0DEF806465548864209D9524880681D
:1058B00020F0F00040F080004F4988604FF08008F1
:1058C0004D48806820F00300616808434A498860B9
:1058D000FFF7C2F9074608E0FFF7BEF9C01B41F227
:1058E0008831884201D9032086E74348806800F068
:1058F0000C006168B0EB810FEED1207800F002005F
:10590000022820D1207800F00400042805D13A486C
:10591000806840F4E06038498860207800F0080032
:10592000082807D13448806820F4605040F4E060D3
:10593000314988603048806820F0F000A168084351
:105940002D49886008E0B8F1800F05D12A488068A9
:1059500020F0F000284988602648006800F00F0019
:10596000A84219D92348006820F00F002843214994
:105970000860FFF771F9074608E0FFF76DF9C01BF3
:1059800041F28831884201D9032035E7194800687F
:1059900000F00F00A842F0D1207800F004000428A5
:1059A00007D11548806820F4E060E1680843124997
:1059B0008860207800F00800082808D10E48806828
:1059C00020F46050216940EAC1000B49886000F072
:1059D00047F809498968C1F30311094A515C01F08C
:1059E0001F01C8400749086007480068FFF7CAFA66
:1059F00002E70000002002400010024000B4C4048E
:105A000094C00008B8000020B000002001480068E1
:105A100070470000B800002000B5FFF7F7FF054908
:105A20008968C1F30221044A515C01F01F01C8409A
:105A300000BD000000100240A4C0000800B5FFF740
:105A4000E5FF05498968C1F3C221044A515C01F0B0
:105A50001F01C84000BD000000100240A4C00008A3
:105A600070B5224DAD6805F00C05042D01D120481C
:105A70003AE01E4DAD6805F00C05082D01D11D481A
:105A800032E01A4DAD6805F00C050C2D2BD1174DE9
:105A9000ED6805F00304154DED68C5F303156A1CA8
:105AA000022C0CD0032C09D1124DB5FBF2F50F4E90
:105AB000F668C6F3062605FB06F10AE000BF0C4DAA
:105AC000B5FBF2F5094EF668C6F3062605FB06F1AE
:105AD00000BF00BF054DED68C5F341656D1C6B004F
